{
    "txid": "b43b3b4a75071e3898425a0179843c8eaddcd03bbf675dc31e0dc6d3c8df15b5",
    "hash": "b43b3b4a75071e3898425a0179843c8eaddcd03bbf675dc31e0dc6d3c8df15b5",
    "version": 2,
    "size": 176,
    "vsize": 176,
    "weight": 704,
    "locktime": 0,
    "vin": [
        {
            "txid": "5897de6bd6027a475eadd57019d4e6872c396d0716c4875a5f1a6fcfdf385c1f",
            "vout": 0,
            "scriptSig": {
                "asm": "",
                "hex": ""
            },
            "sequence": 4294967295
        }
    ],
    "vout": [
        {
            "value": 0.18000000,
            "n": 0,
            "scriptPubKey": {
                "asm": "OP_DUP OP_HASH160 15dd8f417866927d1c3ecc2b50f8bc58dd78f267 OP_EQUALVERIFY OP_CHECKSIG",
                "hex": "76a91415dd8f417866927d1c3ecc2b50f8bc58dd78f26788ac",
                "reqSigs": 1,
                "type": "pubkeyhash",
                "addresses": [
                    "D78i9WxKZYWjM7JxDpwaBo7y7Shhovxq44"
                ]
            }
        },
        {
            "value": 0.00000000,
            "n": 1,
            "scriptPubKey": {
                "asm": "OP_RETURN 54686973204f505f52455455524e207472616e73616374696f6e206f7574707574207761732063726561746564206279206d6f646966696564206372656174657261777472616e73616374696f6e2e",
                "hex": "6a4c4f54686973204f505f52455455524e207472616e73616374696f6e206f7574707574207761732063726561746564206279206d6f646966696564206372656174657261777472616e73616374696f6e2e",
                "type": "nulldata"
            }
        }
    ],
    "hex": "02000000011f5c38dfcf6f1a5f5a87c416076d392c87e6d41970d5ad5e477a02d66bde97580000000000ffffffff0280a81201000000001976a91415dd8f417866927d1c3ecc2b50f8bc58dd78f26788ac0000000000000000526a4c4f54686973204f505f52455455524e207472616e73616374696f6e206f7574707574207761732063726561746564206279206d6f646966696564206372656174657261777472616e73616374696f6e2e00000000"
}
