{
    "txid": "4b83088dbe41f4f4ecfe5fd4d209d2c6ed157e0c2438ef9471a0dd58fddd3d49",
    "hash": "4b83088dbe41f4f4ecfe5fd4d209d2c6ed157e0c2438ef9471a0dd58fddd3d49",
    "version": 1,
    "size": 223,
    "vsize": 223,
    "weight": 892,
    "locktime": 0,
    "vin": [
        {
            "txid": "4d49a71ec9da436f71ec4ee231d04f292a29cd316f598bb7068feccabdc59485",
            "vout": 0,
            "scriptSig": {
                "asm": "30440220131432090a6af42da3e8335ff110831b41a44f4e9d18d88f5d50278380696c7202200fc2e48938f323ad13625890c0ea926c8a189c08b8efc38376b20c8a2188e96e[ALL] 0479be667ef9dcbbac55a06295ce870b07029bfcdb2dce28d959f2815b16f81798483ada7726a3c4655da4fbfc0e1108a8fd17b448a68554199c47d08ffb10d4b8",
                "hex": "4730440220131432090a6af42da3e8335ff110831b41a44f4e9d18d88f5d50278380696c7202200fc2e48938f323ad13625890c0ea926c8a189c08b8efc38376b20c8a2188e96e01410479be667ef9dcbbac55a06295ce870b07029bfcdb2dce28d959f2815b16f81798483ada7726a3c4655da4fbfc0e1108a8fd17b448a68554199c47d08ffb10d4b8"
            },
            "sequence": 4294967295
        }
    ],
    "vout": [
        {
            "value": 0.00100000,
            "n": 0,
            "scriptPubKey": {
                "asm": "OP_DUP OP_HASH160 e0b5cf07d580200c56c4f98a09223924cb5a64af OP_EQUALVERIFY OP_CHECKSIG",
                "hex": "76a914e0b5cf07d580200c56c4f98a09223924cb5a64af88ac",
                "reqSigs": 1,
                "type": "pubkeyhash",
                "addresses": [
                    "DRdFhX5DamBnxgF8rTiRdUwLjt3xHRFLe4"
                ]
            }
        }
    ],
    "hex": "01000000018594c5bdcaec8f06b78b596f31cd292a294fd031e24eec716f43dac91ea7494d000000008a4730440220131432090a6af42da3e8335ff110831b41a44f4e9d18d88f5d50278380696c7202200fc2e48938f323ad13625890c0ea926c8a189c08b8efc38376b20c8a2188e96e01410479be667ef9dcbbac55a06295ce870b07029bfcdb2dce28d959f2815b16f81798483ada7726a3c4655da4fbfc0e1108a8fd17b448a68554199c47d08ffb10d4b8ffffffff01a0860100000000001976a914e0b5cf07d580200c56c4f98a09223924cb5a64af88ac00000000"
}
