{
    "txid": "5da5c74f913bb3ceb9100e6ed14c3a3136e3e73a58929f094300f0cfa38d7d93",
    "hash": "5da5c74f913bb3ceb9100e6ed14c3a3136e3e73a58929f094300f0cfa38d7d93",
    "version": 2,
    "size": 85,
    "vsize": 85,
    "weight": 340,
    "locktime": 0,
    "vin": [
        {
            "txid": "5897de6bd6027a475eadd57019d4e6872c396d0716c4875a5f1a6fcfdf385c1f",
            "vout": 0,
            "scriptSig": {
                "asm": "",
                "hex": ""
            },
            "sequence": 4294967293
        }
    ],
    "vout": [
        {
            "value": 0.18000000,
            "n": 0,
            "scriptPubKey": {
                "asm": "OP_DUP OP_HASH160 15dd8f417866927d1c3ecc2b50f8bc58dd78f267 OP_EQUALVERIFY OP_CHECKSIG",
                "hex": "76a91415dd8f417866927d1c3ecc2b50f8bc58dd78f26788ac",
                "reqSigs": 1,
                "type": "pubkeyhash",
                "addresses": [
                    "D78i9WxKZYWjM7JxDpwaBo7y7Shhovxq44"
                ]
            }
        }
    ],
    "hex": "02000000011f5c38dfcf6f1a5f5a87c416076d392c87e6d41970d5ad5e477a02d66bde97580000000000fdffffff0180a81201000000001976a91415dd8f417866927d1c3ecc2b50f8bc58dd78f26788ac00000000"
}
