{
    "txid": "0a543bb63e269019f9c2001e95ec437220d0fc3d72f4a94de2c0d7335c3fdd83",
    "hash": "0a543bb63e269019f9c2001e95ec437220d0fc3d72f4a94de2c0d7335c3fdd83",
    "version": 2,
    "size": 176,
    "vsize": 176,
    "weight": 704,
    "locktime": 0,
    "vin": [
        {
            "txid": "5897de6bd6027a475eadd57019d4e6872c396d0716c4875a5f1a6fcfdf385c1f",
            "vout": 0,
            "scriptSig": {
                "asm": "",
                "hex": ""
            },
            "sequence": 4294967295
        }
    ],
    "vout": [
        {
            "value": 0.18000000,
            "n": 0,
            "scriptPubKey": {
                "asm": "OP_DUP OP_HASH160 40c8bdd15b97de751acfc7cfac89bf305e858aca OP_EQUALVERIFY OP_CHECKSIG",
                "hex": "76a91440c8bdd15b97de751acfc7cfac89bf305e858aca88ac",
                "address": "DB3eGJECruhgXkb9P9iW25bqZ8Q8z6FBQq",
                "type": "pubkeyhash"
            }
        },
        {
            "value": 0.00000000,
            "n": 1,
            "scriptPubKey": {
                "asm": "OP_RETURN 54686973204f505f52455455524e207472616e73616374696f6e206f7574707574207761732063726561746564206279206d6f646966696564206372656174657261777472616e73616374696f6e2e",
                "hex": "6a4c4f54686973204f505f52455455524e207472616e73616374696f6e206f7574707574207761732063726561746564206279206d6f646966696564206372656174657261777472616e73616374696f6e2e",
                "type": "nulldata"
            }
        }
    ],
    "hex": "02000000011f5c38dfcf6f1a5f5a87c416076d392c87e6d41970d5ad5e477a02d66bde97580000000000ffffffff0280a81201000000001976a91440c8bdd15b97de751acfc7cfac89bf305e858aca88ac0000000000000000526a4c4f54686973204f505f52455455524e207472616e73616374696f6e206f7574707574207761732063726561746564206279206d6f646966696564206372656174657261777472616e73616374696f6e2e00000000"
}
