{
    "txid": "c8c1cb455e9054cd004af5af6f67e4ac27473c04f5599094f54c1faa779aff13",
    "hash": "c8c1cb455e9054cd004af5af6f67e4ac27473c04f5599094f54c1faa779aff13",
    "version": 1,
    "size": 85,
    "vsize": 85,
    "weight": 340,
    "locktime": 0,
    "vin": [
        {
            "txid": "5897de6bd6027a475eadd57019d4e6872c396d0716c4875a5f1a6fcfdf385c1f",
            "vout": 0,
            "scriptSig": {
                "asm": "",
                "hex": ""
            },
            "sequence": 4294967293
        }
    ],
    "vout": [
        {
            "value": 0.18000000,
            "n": 0,
            "scriptPubKey": {
                "asm": "OP_DUP OP_HASH160 40c8bdd15b97de751acfc7cfac89bf305e858aca OP_EQUALVERIFY OP_CHECKSIG",
                "hex": "76a91440c8bdd15b97de751acfc7cfac89bf305e858aca88ac",
                "address": "DB3eGJECruhgXkb9P9iW25bqZ8Q8z6FBQq",
                "type": "pubkeyhash"
            }
        }
    ],
    "hex": "01000000011f5c38dfcf6f1a5f5a87c416076d392c87e6d41970d5ad5e477a02d66bde97580000000000fdffffff0180a81201000000001976a91440c8bdd15b97de751acfc7cfac89bf305e858aca88ac00000000"
}
