{
    "txid": "3ea7582f1550c86bc8e4fc73325f9a98ac2502244c64efb5b47cedc34dff9529",
    "hash": "3ea7582f1550c86bc8e4fc73325f9a98ac2502244c64efb5b47cedc34dff9529",
    "version": 2,
    "size": 201,
    "vsize": 201,
    "weight": 804,
    "locktime": 0,
    "vin": [
        {
            "txid": "5897de6bd6027a475eadd57019d4e6872c396d0716c4875a5f1a6fcfdf385c1f",
            "vout": 0,
            "scriptSig": {
                "asm": "",
                "hex": ""
            },
            "sequence": 4294967295
        },
        {
            "txid": "bf829c6bcf84579331337659d31f89dfd138f7f7785802d5501c92333145ca7c",
            "vout": 18,
            "scriptSig": {
                "asm": "",
                "hex": ""
            },
            "sequence": 4294967295
        },
        {
            "txid": "22a6f904655d53ae2ff70e701a0bbd90aa3975c0f40bfc6cc996a9049e31cdfc",
            "vout": 1,
            "scriptSig": {
                "asm": "",
                "hex": ""
            },
            "sequence": 4294967295
        }
    ],
    "vout": [
        {
            "value": 0.18000000,
            "n": 0,
            "scriptPubKey": {
                "asm": "OP_DUP OP_HASH160 15dd8f417866927d1c3ecc2b50f8bc58dd78f267 OP_EQUALVERIFY OP_CHECKSIG",
                "hex": "76a91415dd8f417866927d1c3ecc2b50f8bc58dd78f26788ac",
                "reqSigs": 1,
                "type": "pubkeyhash",
                "addresses": [
                    "D78i9WxKZYWjM7JxDpwaBo7y7Shhovxq44"
                ]
            }
        },
        {
            "value": 4.00000000,
            "n": 1,
            "scriptPubKey": {
                "asm": "OP_DUP OP_HASH160 d20cd659614c3966e31d8a5cbc946ca2c4faded0 OP_EQUALVERIFY OP_CHECKSIG",
                "hex": "76a914d20cd659614c3966e31d8a5cbc946ca2c4faded088ac",
                "reqSigs": 1,
                "type": "pubkeyhash",
                "addresses": [
                    "DQHjpVccQymF9g4zFsxZzf1fN2dRDF4Bdg"
                ]
            }
        }
    ],
    "hex": "02000000031f5c38dfcf6f1a5f5a87c416076d392c87e6d41970d5ad5e477a02d66bde97580000000000ffffffff7cca453133921c50d5025878f7f738d1df891fd359763331935784cf6b9c82bf1200000000fffffffffccd319e04a996c96cfc0bf4c07539aa90bd0b1a700ef72fae535d6504f9a6220100000000ffffffff0280a81201000000001976a91415dd8f417866927d1c3ecc2b50f8bc58dd78f26788ac0084d717000000001976a914d20cd659614c3966e31d8a5cbc946ca2c4faded088ac00000000"
}
