{
    "txid": "9ddf8440c33f7c782c3e50ecff51d4f514dabfea34855000273ad4b5918514dc",
    "hash": "9ddf8440c33f7c782c3e50ecff51d4f514dabfea34855000273ad4b5918514dc",
    "version": 2,
    "size": 201,
    "vsize": 201,
    "weight": 804,
    "locktime": 0,
    "vin": [
        {
            "txid": "5897de6bd6027a475eadd57019d4e6872c396d0716c4875a5f1a6fcfdf385c1f",
            "vout": 0,
            "scriptSig": {
                "asm": "",
                "hex": ""
            },
            "sequence": 4294967295
        },
        {
            "txid": "bf829c6bcf84579331337659d31f89dfd138f7f7785802d5501c92333145ca7c",
            "vout": 18,
            "scriptSig": {
                "asm": "",
                "hex": ""
            },
            "sequence": 4294967295
        },
        {
            "txid": "22a6f904655d53ae2ff70e701a0bbd90aa3975c0f40bfc6cc996a9049e31cdfc",
            "vout": 1,
            "scriptSig": {
                "asm": "",
                "hex": ""
            },
            "sequence": 4294967295
        }
    ],
    "vout": [
        {
            "value": 0.18000000,
            "n": 0,
            "scriptPubKey": {
                "asm": "OP_DUP OP_HASH160 40c8bdd15b97de751acfc7cfac89bf305e858aca OP_EQUALVERIFY OP_CHECKSIG",
                "hex": "76a91440c8bdd15b97de751acfc7cfac89bf305e858aca88ac",
                "address": "DB3eGJECruhgXkb9P9iW25bqZ8Q8z6FBQq",
                "type": "pubkeyhash"
            }
        },
        {
            "value": 4.00000000,
            "n": 1,
            "scriptPubKey": {
                "asm": "OP_DUP OP_HASH160 b9b3036866a5f5b67e77688dd1ff7af37d40599a OP_EQUALVERIFY OP_CHECKSIG",
                "hex": "76a914b9b3036866a5f5b67e77688dd1ff7af37d40599a88ac",
                "address": "DN4yzowAzPbtM6Hh4HsNjFH8QjurZ4Nzhz",
                "type": "pubkeyhash"
            }
        }
    ],
    "hex": "02000000031f5c38dfcf6f1a5f5a87c416076d392c87e6d41970d5ad5e477a02d66bde97580000000000ffffffff7cca453133921c50d5025878f7f738d1df891fd359763331935784cf6b9c82bf1200000000fffffffffccd319e04a996c96cfc0bf4c07539aa90bd0b1a700ef72fae535d6504f9a6220100000000ffffffff0280a81201000000001976a91440c8bdd15b97de751acfc7cfac89bf305e858aca88ac0084d717000000001976a914b9b3036866a5f5b67e77688dd1ff7af37d40599a88ac00000000"
}
